{
  "_format": "hh-sol-artifact-1",
  "contractName": "IsPerdueWinner",
  "sourceName": "contracts/associated-press/IsPerdueWinner.sol",
  "abi": [
    {
      "inputs": [],
      "stateMutability": "nonpayable",
      "type": "constructor"
    },
    {
      "inputs": [],
      "name": "isPerdueWinner",
      "outputs": [
        {
          "internalType": "bool",
          "name": "",
          "type": "bool"
        }
      ],
      "stateMutability": "view",
      "type": "function"
    }
  ],
  "bytecode": "0x608060405234801561001057600080fd5b50730792724900b551d200d954a5ed709d9514d73a9f6000806101000a81548173ffffffffffffffffffffffffffffffffffffffff021916908373ffffffffffffffffffffffffffffffffffffffff160217905550610270806100746000396000f3fe608060405234801561001057600080fd5b506004361061002b5760003560e01c8063b4d9d21714610030575b600080fd5b610038610052565b604051808215151515815260200191505060405180910390f35b60006040518060400160405280600681526020017f5065726475650000000000000000000000000000000000000000000000000000815250805190602001206000809054906101000a900473ffffffffffffffffffffffffffffffffffffffff1673ffffffffffffffffffffffffffffffffffffffff166328e0a79d6040518163ffffffff1660e01b81526004018080602001828103825260148152602001807f552e532e2053656e61746520436c61737320494900000000000000000000000081525060200191505060006040518083038186803b15801561013457600080fd5b505afa158015610148573d6000803e3d6000fd5b505050506040513d6000823e3d601f19601f82011682018060405250602081101561017257600080fd5b810190808051604051939291908464010000000082111561019257600080fd5b838201915060208201858111156101a857600080fd5b82518660018202830111640100000000821117156101c557600080fd5b8083526020830192505050908051906020019080838360005b838110156101f95780820151818401526020810190506101de565b50505050905090810190601f1680156102265780820380516001836020036101000a031916815260200191505b50604052505050805190602001201490509056fea264697066735822122036eb05e2328d9c4d0299142dcd268f4fcb567c5a6083c186c87c2951372118d164736f6c634300060b0033",
  "linkReferences": {},
  "deployedLinkReferences": {}
}