{
  "_format": "hh-sol-artifact-1",
  "contractName": "MarchMadness2021",
  "sourceName": "contracts/associated-press/MarchMadness2021.sol",
  "abi": [
    {
      "anonymous": false,
      "inputs": [
        {
          "indexed": false,
          "internalType": "string",
          "name": "id",
          "type": "string"
        },
        {
          "indexed": false,
          "internalType": "string",
          "name": "homeTeam",
          "type": "string"
        },
        {
          "indexed": false,
          "internalType": "string",
          "name": "awayTeam",
          "type": "string"
        },
        {
          "indexed": false,
          "internalType": "uint256",
          "name": "winner",
          "type": "uint256"
        },
        {
          "indexed": false,
          "internalType": "uint256",
          "name": "homePoints",
          "type": "uint256"
        },
        {
          "indexed": false,
          "internalType": "uint256",
          "name": "awayPoints",
          "type": "uint256"
        },
        {
          "indexed": false,
          "internalType": "uint256",
          "name": "scheduled",
          "type": "uint256"
        }
      ],
      "name": "CallWinner",
      "type": "event"
    },
    {
      "anonymous": false,
      "inputs": [
        {
          "indexed": true,
          "internalType": "address",
          "name": "previousOwner",
          "type": "address"
        },
        {
          "indexed": true,
          "internalType": "address",
          "name": "newOwner",
          "type": "address"
        }
      ],
      "name": "OwnershipTransferred",
      "type": "event"
    },
    {
      "anonymous": false,
      "inputs": [
        {
          "indexed": false,
          "internalType": "string",
          "name": "ipfsHash",
          "type": "string"
        }
      ],
      "name": "SetIPFS",
      "type": "event"
    },
    {
      "inputs": [
        {
          "internalType": "string",
          "name": "",
          "type": "string"
        }
      ],
      "name": "allGames",
      "outputs": [
        {
          "internalType": "string",
          "name": "id",
          "type": "string"
        },
        {
          "internalType": "string",
          "name": "homeTeam",
          "type": "string"
        },
        {
          "internalType": "string",
          "name": "awayTeam",
          "type": "string"
        },
        {
          "internalType": "uint256",
          "name": "winner",
          "type": "uint256"
        },
        {
          "internalType": "uint256",
          "name": "homePoints",
          "type": "uint256"
        },
        {
          "internalType": "uint256",
          "name": "awayPoints",
          "type": "uint256"
        },
        {
          "internalType": "uint256",
          "name": "scheduled",
          "type": "uint256"
        },
        {
          "internalType": "uint256",
          "name": "round",
          "type": "uint256"
        }
      ],
      "stateMutability": "view",
      "type": "function"
    },
    {
      "inputs": [
        {
          "internalType": "uint256",
          "name": "round",
          "type": "uint256"
        },
        {
          "internalType": "string",
          "name": "id",
          "type": "string"
        },
        {
          "internalType": "string",
          "name": "homeTeam",
          "type": "string"
        },
        {
          "internalType": "string",
          "name": "awayTeam",
          "type": "string"
        },
        {
          "internalType": "uint256",
          "name": "winner",
          "type": "uint256"
        },
        {
          "internalType": "uint256",
          "name": "homePoints",
          "type": "uint256"
        },
        {
          "internalType": "uint256",
          "name": "awayPoints",
          "type": "uint256"
        },
        {
          "internalType": "uint256",
          "name": "scheduled",
          "type": "uint256"
        }
      ],
      "name": "callWinner",
      "outputs": [],
      "stateMutability": "nonpayable",
      "type": "function"
    },
    {
      "inputs": [
        {
          "internalType": "string",
          "name": "id",
          "type": "string"
        }
      ],
      "name": "getGame",
      "outputs": [
        {
          "components": [
            {
              "internalType": "string",
              "name": "id",
              "type": "string"
            },
            {
              "internalType": "string",
              "name": "homeTeam",
              "type": "string"
            },
            {
              "internalType": "string",
              "name": "awayTeam",
              "type": "string"
            },
            {
              "internalType": "uint256",
              "name": "winner",
              "type": "uint256"
            },
            {
              "internalType": "uint256",
              "name": "homePoints",
              "type": "uint256"
            },
            {
              "internalType": "uint256",
              "name": "awayPoints",
              "type": "uint256"
            },
            {
              "internalType": "uint256",
              "name": "scheduled",
              "type": "uint256"
            },
            {
              "internalType": "uint256",
              "name": "round",
              "type": "uint256"
            }
          ],
          "internalType": "struct MarchMadness2021.Game",
          "name": "",
          "type": "tuple"
        }
      ],
      "stateMutability": "view",
      "type": "function"
    },
    {
      "inputs": [],
      "name": "ipfsFullData",
      "outputs": [
        {
          "internalType": "string",
          "name": "",
          "type": "string"
        }
      ],
      "stateMutability": "view",
      "type": "function"
    },
    {
      "inputs": [],
      "name": "owner",
      "outputs": [
        {
          "internalType": "address",
          "name": "",
          "type": "address"
        }
      ],
      "stateMutability": "view",
      "type": "function"
    },
    {
      "inputs": [],
      "name": "renounceOwnership",
      "outputs": [],
      "stateMutability": "nonpayable",
      "type": "function"
    },
    {
      "inputs": [
        {
          "internalType": "string",
          "name": "ipfsHash",
          "type": "string"
        }
      ],
      "name": "setIpfsData",
      "outputs": [],
      "stateMutability": "nonpayable",
      "type": "function"
    },
    {
      "inputs": [
        {
          "internalType": "address",
          "name": "newOwner",
          "type": "address"
        }
      ],
      "name": "transferOwnership",
      "outputs": [],
      "stateMutability": "nonpayable",
      "type": "function"
    }
  ],
  "bytecode": "0x608060405260006100146100b760201b60201c565b9050806000806101000a81548173ffffffffffffffffffffffffffffffffffffffff021916908373ffffffffffffffffffffffffffffffffffffffff1602179055508073ffffffffffffffffffffffffffffffffffffffff16600073ffffffffffffffffffffffffffffffffffffffff167f8be0079c531659141344cd1fd0a4f28419497f9722a3daafe3b4186f6b6457e060405160405180910390a3506100bf565b600033905090565b61183f806100ce6000396000f3fe608060405234801561001057600080fd5b50600436106100885760003560e01c8063c63bf61e1161005b578063c63bf61e14610101578063cad2efad1461011d578063cc9e791c14610154578063f2fde38b1461017257610088565b80630e52f0841461008d5780634d92f652146100a9578063715018a6146100d95780638da5cb5b146100e3575b600080fd5b6100a760048036036100a2919081019061101f565b61018e565b005b6100c360048036036100be91908101906110a5565b610273565b6040516100d09190611662565b60405180910390f35b6100e16104c4565b005b6100eb610619565b6040516100f891906114a4565b60405180910390f35b61011b600480360361011691908101906110e6565b610642565b005b61013760048036036101329190810190611064565b6108e0565b60405161014b98979695949392919061158f565b60405180910390f35b61015c610b06565b604051610169919061156d565b60405180910390f35b61018c60048036036101879190810190610ff6565b610ba4565b005b610196610d68565b73ffffffffffffffffffffffffffffffffffffffff166000809054906101000a900473ffffffffffffffffffffffffffffffffffffffff1673ffffffffffffffffffffffffffffffffffffffff1614610224576040517f08c379a000000000000000000000000000000000000000000000000000000000815260040161021b90611642565b60405180910390fd5b818160029190610235929190610d70565b507faf8ddd065c6a5fccdffbc9192f91e03ec528681278d78523226450646da138ed82826040516102679291906114bf565b60405180910390a15050565b61027b610df0565b60018260405161028b919061148d565b908152602001604051809103902060405180610100016040529081600082018054600181600116156101000203166002900480601f01602080910402602001604051908101604052809291908181526020018280546001816001161561010002031660029004801561033e5780601f106103135761010080835404028352916020019161033e565b820191906000526020600020905b81548152906001019060200180831161032157829003601f168201915b50505050508152602001600182018054600181600116156101000203166002900480601f0160208091040260200160405190810160405280929190818152602001828054600181600116156101000203166002900480156103e05780601f106103b5576101008083540402835291602001916103e0565b820191906000526020600020905b8154815290600101906020018083116103c357829003601f168201915b50505050508152602001600282018054600181600116156101000203166002900480601f0160208091040260200160405190810160405280929190818152602001828054600181600116156101000203166002900480156104825780601f1061045757610100808354040283529160200191610482565b820191906000526020600020905b81548152906001019060200180831161046557829003601f168201915b50505050508152602001600382015481526020016004820154815260200160058201548152602001600682015481526020016007820154815250509050919050565b6104cc610d68565b73ffffffffffffffffffffffffffffffffffffffff166000809054906101000a900473ffffffffffffffffffffffffffffffffffffffff1673ffffffffffffffffffffffffffffffffffffffff161461055a576040517f08c379a000000000000000000000000000000000000000000000000000000000815260040161055190611642565b60405180910390fd5b600073ffffffffffffffffffffffffffffffffffffffff166000809054906101000a900473ffffffffffffffffffffffffffffffffffffffff1673ffffffffffffffffffffffffffffffffffffffff167f8be0079c531659141344cd1fd0a4f28419497f9722a3daafe3b4186f6b6457e060405160405180910390a360008060006101000a81548173ffffffffffffffffffffffffffffffffffffffff021916908373ffffffffffffffffffffffffffffffffffffffff160217905550565b60008060009054906101000a900473ffffffffffffffffffffffffffffffffffffffff16905090565b61064a610d68565b73ffffffffffffffffffffffffffffffffffffffff166000809054906101000a900473ffffffffffffffffffffffffffffffffffffffff1673ffffffffffffffffffffffffffffffffffffffff16146106d8576040517f08c379a00000000000000000000000000000000000000000000000000000000081526004016106cf90611642565b60405180910390fd5b6040518061010001604052808b8b8080601f016020809104026020016040519081016040528093929190818152602001838380828437600081840152601f19601f82011690508083019250505050505050815260200189898080601f016020809104026020016040519081016040528093929190818152602001838380828437600081840152601f19601f82011690508083019250505050505050815260200187878080601f016020809104026020016040519081016040528093929190818152602001838380828437600081840152601f19601f8201169050808301925050505050505081526020018581526020018481526020018381526020018281526020018c81525060018b8b6040516107f0929190611474565b9081526020016040518091039020600082015181600001908051906020019061081a929190610e35565b506020820151816001019080519060200190610837929190610e35565b506040820151816002019080519060200190610854929190610e35565b50606082015181600301556080820151816004015560a0820151816005015560c0820151816006015560e082015181600701559050507f67fee5222800b60d5a25da8a9c2c214302f893b82fb810ee440939998cfe9d308a8a8a8a8a8a8a8a8a8a6040516108cb9a999897969594939291906114e3565b60405180910390a15050505050505050505050565b600181805160208101820180518482526020830160208501208183528095505050505050600091509050806000018054600181600116156101000203166002900480601f0160208091040260200160405190810160405280929190818152602001828054600181600116156101000203166002900480156109a25780601f10610977576101008083540402835291602001916109a2565b820191906000526020600020905b81548152906001019060200180831161098557829003601f168201915b505050505090806001018054600181600116156101000203166002900480601f016020809104026020016040519081016040528092919081815260200182805460018160011615610100020316600290048015610a405780601f10610a1557610100808354040283529160200191610a40565b820191906000526020600020905b815481529060010190602001808311610a2357829003601f168201915b505050505090806002018054600181600116156101000203166002900480601f016020809104026020016040519081016040528092919081815260200182805460018160011615610100020316600290048015610ade5780601f10610ab357610100808354040283529160200191610ade565b820191906000526020600020905b815481529060010190602001808311610ac157829003601f168201915b5050505050908060030154908060040154908060050154908060060154908060070154905088565b60028054600181600116156101000203166002900480601f016020809104026020016040519081016040528092919081815260200182805460018160011615610100020316600290048015610b9c5780601f10610b7157610100808354040283529160200191610b9c565b820191906000526020600020905b815481529060010190602001808311610b7f57829003601f168201915b505050505081565b610bac610d68565b73ffffffffffffffffffffffffffffffffffffffff166000809054906101000a900473ffffffffffffffffffffffffffffffffffffffff1673ffffffffffffffffffffffffffffffffffffffff1614610c3a576040517f08c379a0000000000000000000000000000000000000000000000000000000008152600401610c3190611642565b60405180910390fd5b600073ffffffffffffffffffffffffffffffffffffffff168173ffffffffffffffffffffffffffffffffffffffff161415610caa576040517f08c379a0000000000000000000000000000000000000000000000000000000008152600401610ca190611622565b60405180910390fd5b8073ffffffffffffffffffffffffffffffffffffffff166000809054906101000a900473ffffffffffffffffffffffffffffffffffffffff1673ffffffffffffffffffffffffffffffffffffffff167f8be0079c531659141344cd1fd0a4f28419497f9722a3daafe3b4186f6b6457e060405160405180910390a3806000806101000a81548173ffffffffffffffffffffffffffffffffffffffff021916908373ffffffffffffffffffffffffffffffffffffffff16021790555050565b600033905090565b828054600181600116156101000203166002900490600052602060002090601f016020900481019282601f10610db157803560ff1916838001178555610ddf565b82800160010185558215610ddf579182015b82811115610dde578235825591602001919060010190610dc3565b5b509050610dec9190610eb5565b5090565b60405180610100016040528060608152602001606081526020016060815260200160008152602001600081526020016000815260200160008152602001600081525090565b828054600181600116156101000203166002900490600052602060002090601f016020900481019282601f10610e7657805160ff1916838001178555610ea4565b82800160010185558215610ea4579182015b82811115610ea3578251825591602001919060010190610e88565b5b509050610eb19190610eb5565b5090565b610ed791905b80821115610ed3576000816000905550600101610ebb565b5090565b90565b600081359050610ee9816117db565b92915050565b60008083601f840112610f0157600080fd5b8235905067ffffffffffffffff811115610f1a57600080fd5b602083019150836001820283011115610f3257600080fd5b9250929050565b600082601f830112610f4a57600080fd5b8135610f5d610f58826116b1565b611684565b91508082526020830160208301858383011115610f7957600080fd5b610f84838284611788565b50505092915050565b600082601f830112610f9e57600080fd5b8135610fb1610fac826116dd565b611684565b91508082526020830160208301858383011115610fcd57600080fd5b610fd8838284611788565b50505092915050565b600081359050610ff0816117f2565b92915050565b60006020828403121561100857600080fd5b600061101684828501610eda565b91505092915050565b6000806020838503121561103257600080fd5b600083013567ffffffffffffffff81111561104c57600080fd5b61105885828601610eef565b92509250509250929050565b60006020828403121561107657600080fd5b600082013567ffffffffffffffff81111561109057600080fd5b61109c84828501610f39565b91505092915050565b6000602082840312156110b757600080fd5b600082013567ffffffffffffffff8111156110d157600080fd5b6110dd84828501610f8d565b91505092915050565b60008060008060008060008060008060006101008c8e03121561110857600080fd5b60006111168e828f01610fe1565b9b505060208c013567ffffffffffffffff81111561113357600080fd5b61113f8e828f01610eef565b9a509a505060408c013567ffffffffffffffff81111561115e57600080fd5b61116a8e828f01610eef565b985098505060608c013567ffffffffffffffff81111561118957600080fd5b6111958e828f01610eef565b965096505060806111a88e828f01610fe1565b94505060a06111b98e828f01610fe1565b93505060c06111ca8e828f01610fe1565b92505060e06111db8e828f01610fe1565b9150509295989b509295989b9093969950565b6111f78161174c565b82525050565b60006112098385611730565b9350611216838584611788565b61121f836117ca565b840190509392505050565b60006112368385611741565b9350611243838584611788565b82840190509392505050565b600061125a82611714565b6112648185611741565b9350611274818560208601611797565b80840191505092915050565b600061128b82611709565b611295818561171f565b93506112a5818560208601611797565b6112ae816117ca565b840191505092915050565b60006112c482611709565b6112ce8185611730565b93506112de818560208601611797565b6112e7816117ca565b840191505092915050565b60006112ff602683611730565b91507f4f776e61626c653a206e6577206f776e657220697320746865207a65726f206160008301527f64647265737300000000000000000000000000000000000000000000000000006020830152604082019050919050565b6000611365602083611730565b91507f4f776e61626c653a2063616c6c6572206973206e6f7420746865206f776e65726000830152602082019050919050565b60006101008301600083015184820360008601526113b68282611280565b915050602083015184820360208601526113d08282611280565b915050604083015184820360408601526113ea8282611280565b91505060608301516113ff6060860182611456565b5060808301516114126080860182611456565b5060a083015161142560a0860182611456565b5060c083015161143860c0860182611456565b5060e083015161144b60e0860182611456565b508091505092915050565b61145f8161177e565b82525050565b61146e8161177e565b82525050565b600061148182848661122a565b91508190509392505050565b6000611499828461124f565b915081905092915050565b60006020820190506114b960008301846111ee565b92915050565b600060208201905081810360008301526114da8184866111fd565b90509392505050565b600060e08201905081810360008301526114fe818c8e6111fd565b90508181036020830152611513818a8c6111fd565b9050818103604083015261152881888a6111fd565b90506115376060830187611465565b6115446080830186611465565b61155160a0830185611465565b61155e60c0830184611465565b9b9a5050505050505050505050565b6000602082019050818103600083015261158781846112b9565b905092915050565b60006101008201905081810360008301526115aa818b6112b9565b905081810360208301526115be818a6112b9565b905081810360408301526115d281896112b9565b90506115e16060830188611465565b6115ee6080830187611465565b6115fb60a0830186611465565b61160860c0830185611465565b61161560e0830184611465565b9998505050505050505050565b6000602082019050818103600083015261163b816112f2565b9050919050565b6000602082019050818103600083015261165b81611358565b9050919050565b6000602082019050818103600083015261167c8184611398565b905092915050565b6000604051905081810181811067ffffffffffffffff821117156116a757600080fd5b8060405250919050565b600067ffffffffffffffff8211156116c857600080fd5b601f19601f8301169050602081019050919050565b600067ffffffffffffffff8211156116f457600080fd5b601f19601f8301169050602081019050919050565b600081519050919050565b600081519050919050565b600082825260208201905092915050565b600082825260208201905092915050565b600081905092915050565b60006117578261175e565b9050919050565b600073ffffffffffffffffffffffffffffffffffffffff82169050919050565b6000819050919050565b82818337600083830152505050565b60005b838110156117b557808201518184015260208101905061179a565b838111156117c4576000848401525b50505050565b6000601f19601f8301169050919050565b6117e48161174c565b81146117ef57600080fd5b50565b6117fb8161177e565b811461180657600080fd5b5056fea2646970667358221220952ccbd984eaf976205fea4823201cb2ef8fb5243e5d9e99441245b6e0caa11064736f6c63430006000033",
  "linkReferences": {},
  "deployedLinkReferences": {}
}